:020000022000DC
:1060000000000120B5620200DD620200DF620200D2
:10601000E1620200E3620200E562020000000000AB
:10602000000000000000000000000000E762020025
:10603000E962020000000000EB620200ED62020073
:10604000296F0200EF620200956F0200EF6202000A
:10605000EF620200EF620200EF620200EF620200F4
:10606000EF620200EF620200EF620200EF620200E4
:10607000EF620200EF620200EF620200EF620200D4
:10608000EF62020045630200EF620200EF6202006D
:10609000E5630200EF620200A1750200EF620200F8
:1060A000EF620200EF620200EF620200EF620200A4
:1060B000EF620200EF62020000000000000000003A
:1060C000EF620200EF620200EF620200EF62020084
:1060D000EF620200EF620200EF62020000000000C7
:1060E00000000000000000000000000000000000B0
:1060F00000000000000000000000000000000000A0
:10610000000000000000000000000000000000008F
:10611000000000000000000000000000000000007F
:10612000000000000000000000000000000000006F
:10613000000000000000000000000000000000005F
:10614000000000000000000000000000000000004F
:10615000000000000000000000000000000000003F
:10616000000000000000000000000000000000002F
:10617000000000000000000000000000000000001F
:10618000000000000000000000000000000000000F
:1061900000000000000000000000000000000000FF
:1061A00000000000000000000000000000000000EF
:1061B00000000000000000000000000000000000DF
:1061C00000000000000000000000000000000000CF
:1061D00000000000000000000000000000000000BF
:1061E00000000000000000000000000000000000AF
:1061F000000000000000000000000000000000009F
:1062000010B5054C237833B9044B13B10448AFF3F0
:1062100000800123237010BD482B002000000000E7
:106220004C87020008B5034B1BB103490348AFF389
:10623000008008BD000000004C2B00204C870200AD
:10624000154B002B08BF134B9D46A3F5803A002148
:106250008B460F461348144A121A01F0CDFA0F4B21
:10626000002B00D098470E4B002B00D09847002001
:10627000002104000D000D48002802D00C48AFF3A7
:10628000008001F087FA2000290001F0FBF901F0FD
:106290006DFA00BF000008000000012000000000AF
:1062A00000000000482B0020B02D0020000000005E
:1062B000000000000649074A074B9B1A03DD043B18
:1062C000C858D050FBDC00F0A1FBFFF7B9FF00007D
:1062D00020880200D82A0020482B0020FEE7FEE795
:1062E000FEE7FEE7FEE7FEE7FEE7FEE7FEE7FEE786
:1062F00000B585B00346002101AA44F20100CDE9B2
:106300000111039300F004F805B05DF804FB00BF31
:1063100072B6094B1B68DB0700D500BEBFF34F8F79
:106320000649074BCA6802F4E0621343CB60BFF32F
:106330004F8F00BFFDE700BFF0ED00E000ED00E093
:106340000400FA05F8B52049204B0024C1F840416B
:10635000C1F84441C1F84841C1F84C41C1F800417D
:10636000C1F804411B6833B31948D1F804550168DA
:106370001A686D1A25F07F45AA4227460DD8197C68
:10638000DE69AD1A144419B1D3E905201F74904792
:106390001EB133461A68AA42F1D90E490E4A0B784B
:1063A00012789A4208D00D490D4A41F823404FF423
:1063B0008013C2F80031F8BD531CDBB2022B08BFBA
:1063C00000230B70EFE700BF00100140842C002079
:1063D000802C00207D2C00207C2C0020742C0020A0
:1063E00000E100E02DE9F04FB34AB4491378097891
:1063F000994285B000F088810133DBB2022B08BFDF
:106400000023AF481370AF4A0568DFF8D08252F816
:106410002310D8F800606B1823F07F430360002E30
:1064200000F0C18100200746044684463346AE464C
:1064300013E0D868DD69C3F800C0891A144438B184
:106440000EEB040222F07F42C3E90120DF611F4608
:106450000120002D00F05F812B461A688A42E8D99E
:10646000002800F08B81C8F800309946521A1A6053
:1064700001230093944B954EDFF864A243F001038F
:1064800001934D464FF0000B002F31D0D7E901307A
:106490003C46FF698A4ADFF84CC21268991A21F01B
:1064A0007F41614500F2DD800B182360002201214D
:1064B000C4E90122E2612174002D00F0F3802A6812
:1064C0009A4280F0E880294605E0D1F800E09E4538
:1064D00080F0CF8072460846C9699C469B1A002905
:1064E000F3D12360E161C4612C462546002FCDD154
:1064F00070783378984247D09C460CEB4C0CB278BD
:1065000006EBCC0C591CCBB29A429CF80420337099
:1065100004BF00233370022ADCF8084024D0032A89
:1065200018D0012AE6D1227C002AE3D1DCF80C3015
:106530006360DCF81000A060DCF81410E1609AF8E9
:1065400000E0DCF81810A161BEF1000FA2D062607B
:1065500013469FE7002DCDD000232B74ED69002D4D
:10656000FBD1C8F80050C3E755B1AC4200F0BC8085
:106570002A4601E0944239D01146D269002AF9D165
:10658000002222749842B7D1BBF1000F01D1A94576
:1065900041D0002D44D04A4A4D4B1468D3F80465CD
:1065A0004C4FD5F800803A78351B25F07F450335F0
:1065B000002A00F0B580464AA8452CBF444464191F
:1065C00024F07F44C2F84045D2F804359B1BA41B3D
:1065D00023F07F4324F07F440333A34200F2B980C9
:1065E00000238AF8003005B0BDE8F08F8C427DD0E2
:1065F000E0692268C861002858D0AC46036813449B
:106600000360AC4552D0002233787078227465461E
:106610004FF0010BB6E7009B002BE1D0002DBAD163
:106620002B4E2D4A284C4FF400314FF48033012774
:10663000C2F880103C43C6F848334FF43C60C6F8BB
:1066400008337760A0471E4BB7604FF43C601D6075
:10665000A047204B1D7000238AF8003005B0BDE82C
:10666000F08FD31A23F07F4383420BD2C31A2360E7
:106670001CE77244A2EB0C020A602360E161C46172
:106680002C4632E700230122C4E90033A360E36112
:1066900022743DB12A68C8F80040D31A2B60E56126
:1066A000254623E7C8F8004025461FE70022337837
:1066B0007078227466E700BF7C2C00207D2C0020BF
:1066C000802C0020742C002010870200642B0020F6
:1066D00000100140712C002000E100E0842C00201B
:1066E000702C0020FEFF7F0029462A46D5F81CC0EA
:1066F000C8F800C0BCF1000F42D0D0691268C86170
:1067000000287FF47BAF7CE7DFF8B4800027D8F85F
:1067100000900097AEE6A946C8F800500090A9E6A0
:106720002349244A4FF48030C3F844034FF0010951
:10673000C3F804034FF40030C1F8800142F00102B5
:106740000860C3F800904FF43C60904787F80090D1
:1067500031E7184BD2F80415C2F8401543F0010395
:106760004FF43C609847124B4FF40032C3F80021BD
:1067700000238AF8003005B0BDE8F08FB14675E619
:10678000CDE902210C4A0D4801239360C0F800C0F6
:106790008AF800304FF43C60019B9847DDE9022104
:1067A000D8F800C0A9E70123B1463746009361E657
:1067B00000E100E01087020000100140802C002062
:1067C000842C00202DE9F043274EB37883B0002BB2
:1067D0003CD00446002839D0244B91464A1F9A42A7
:1067E0000D4637D843698BB3437C0027012B0DF14D
:1067F00007000CBF8846B8468DF8077000F078F89F
:106800007378B0783278591CC9B2884208BF3946CB
:106810008A4223D003EB430306EBC3030120144A4F
:1068200018719C60D2F804259DF807007170C3E9C7
:106830000325C3E9058900F081F80E4B4FF480125F
:106840003846C3F8002103B0BDE8F083082003B048
:10685000BDE8F083072003B0BDE8F0839DF8070092
:1068600000F06CF80420EEE7642B0020FAFFFF0034
:106870000010014000E100E070B51B4EB37882B01B
:106880004BB3044638B343692BB3002505740DF1AF
:1068900007008DF8075000F02BF87378B078317846
:1068A0005A1CD2B2904208BF2A46914216D003EB3E
:1068B000430306EBC30302219DF807009C60197196
:1068C000727000F03BF8094B4FF480122846C3F871
:1068D000002102B070BD082002B070BD9DF8070015
:1068E00000F02CF80420F4E7642B002000E100E025
:1068F00070B4EFF3108472B60D4B9A68AAB90D49C3
:106900000D4E01259D60D1F8805035401D60C1F8C5
:106910008060D1F884505D604FF0FF33C1F884305F
:10692000027004B962B670BC704701230370F8E7C7
:10693000A02D002000E100E0FC06FFBD094B9A6895
:106940007AB170B910B4EFF3108172B6064A1C68C0
:1069500014605C685460986001B962B65DF8044BDD
:1069600070477047A02D002000E100E04A09012394
:1069700001F01F0100EB820003FA01F100F014B8EE
:1069800001F01F0201234909934000EB8100D94324
:1069900000F018B84B0901F01F0150F82300C8405F
:1069A00000F00100704700BF10B4034653E8002F09
:1069B00042EA010043E8000494F0000FF6D15DF8CC
:1069C000044B704710B4034653E8002F02EA01005D
:1069D00043E8000494F0000FF6D15DF8044B7047D3
:1069E00001600B6843604A68934204BF0023436020
:1069F000704700BF436843B1026891680B4443602D
:106A00005268934204BF00234360704730B4B84BD0
:106A10001B78062B20D0B74B1B68062B00F081801B
:106A2000B54AD2F8883043F47003C2F88830BFF317
:106A30004F8FBFF36F8F4FF01023D3F80022002A3F
:106A4000C0F28681D3F80432002BC0F28181AB4BB7
:106A5000AB4A1A6030BC7047AA4B1B681D07DAD1DD
:106A6000A94B1B6803F0F002302A00F09B8003F072
:106A7000E003402B00F09680A34B1B6803F0F0036B
:106A8000302B00F0A080A04B1B6803F0F002302AEE
:106A900077D003F0E003402B73D09B4B1B6803F0CF
:106AA000F003302B00F01481974B1B6803F0F002C9
:106AB000302A52D003F0E003402B4ED0924B1B689B
:106AC00003F0F003302B00F0F5808F4B1B6803F0D0
:106AD000F003302B00F0D7808B4B1B6803F0F003E2
:106AE000502B7ED0884B1B6803F0F002302A23D055
:106AF00003F0E003402B1FD0834B1B6803F0F00230
:106B0000302A03D003F0E003402B84D14FF08043C0
:106B1000D3F80024D20744BF6FF00102C3F8002469
:106B200079E77A4B1B68062B7FF47AAF784A1368B3
:106B300043F48063136073E7764B6D4A1B681278E9
:106B4000754903F04F03062A0B607FF464AF6D4B69
:106B50001B6819077FF45FAFCEE7654A11784FF0E5
:106B6000804300220629C3F80C21C3F81021C3F882
:106B700038257FF450AF634B1B681B077FF44BAF86
:106B80009CE7664B5A4A1B6812786549C3F3423347
:106B9000062A0B607FF43FAF5A4B1B6819077FF43E
:106BA0003AAF7AE75F4B524A1B6812785E49C3F3EB
:106BB0000423062A0B607FF42EAF524B1B681C0780
:106BC0007FF429AF58E74A4B584A1B78584911605F
:106BD000062B7FF420AF4B4B1B6818077FF41BAFCD
:106BE00051E74FF08052534BD2F80414C3F82015EC
:106BF000D2F80814C3F82415D2F80C14C3F82815D9
:106C0000D2F81014C3F82C15D2F81414C3F83015A8
:106C1000D2F81814C3F83415D2F81C14C3F8401570
:106C2000D2F82014C3F84415D2F82414C3F8481538
:106C3000D2F82814C3F84C15D2F82C14C3F8501508
:106C4000D2F83014C3F85415D2F83414C3F86015D0
:106C5000D2F83814C3F86415D2F83C14C3F8681598
:106C6000D2F840142248C3F86C15D2F844140278C4
:106C7000C3F87015062A7FF4CEAE224B1B681807A6
:106C80007FF4C9AE2EE71A4B2B4C1B782B492C48AE
:106C90002C4A0525256001250D6000243F21062B87
:106CA000046011607FF4B7AE164B1B681C077FF4BD
:106CB000B2AE11E70E4B244A1B780321062B11605C
:106CC0007FF4A9AE0F4B1B681D077FF4A4AEFCE652
:106CD0001E4A0749D368097823F080730629D360D8
:106CE0007FF499AE074B1B681A077FF494AEDBE67E
:106CF000E00F00F03001001000ED00E0D82A002085
:106D00000090D003E40F00F0E80F00F03401001011
:106D10003C17004058020010E40E004044020010EE
:106D20003C050040240300104035014074C007407A
:106D30000DF0ADBA00C0004010560040885600402B
:106D40001856004014560040A0050040F0ED00E049
:106D5000184A0123C2F80435D2F80034002BFBD0C6
:106D60004FF010231521134AC3F80012D2F8003453
:106D7000002BFBD04FF0102315210E4AC3F804124C
:106D8000D2F80034002BFBD000230A49C2F80435A6
:106D9000D1F80034002BFBD0BFF34F8F0649074BCF
:106DA000CA6802F4E0621343CB60BFF34F8F00BFA9
:106DB000FDE700BF00E0014000ED00E00400FA053F
:106DC00010B568B90E4CA368012262703BB1D3E9DB
:106DD00000230020A2609847A368002BF7D110BDC4
:106DE0000128FCD1064C2369A070002BF7D0D3E911
:106DF00000230120226198472369002BF7D110BDA1
:106E0000882C002070B910B5074CA368012262706D
:106E10003BB1D3E900230020A2609847A368002B70
:106E2000F7D110BD704700BF882C002030B5012875
:106E300083B004D003281DD0B0B103B030BD224CC4
:106E400000230DF107008DF80730FFF751FD23787F
:106E50004BB3E3689DF8070001330122E360A270A1
:106E6000FFF76CFD03B030BD184B0122C3F8802042
:106E700003B030BD144C00F039F800230DF10700C9
:106E80008DF80730FFF734FDE368013BE360E56808
:106E90002DB19DF80700FFF751FD03B030BD00F0A4
:106EA00037F8A570F5E70A486360A3602361E360E3
:106EB00000F010F800F06EFB10B101232370C8E75A
:106EC00000F014F8F9E700BF882C002000E100E092
:106ED000C16D0200044A137923B901211060918029
:106EE00018467047852070479C2C0020074B1A6875
:106EF000D20704D4C021012283F800131A604FF096
:106F000080430122C3F81825704700BF00E100E06C
:106F1000044B01221A604FF08042D2F81834DB0390
:106F2000FBD470470C00004010B5174B1A6882B0B4
:106F300062B10021154A19601B68507900934FF027
:106F400080410123009CC1F8083398B1104B1A68A6
:106F5000BAB100221A601B6801934FF080420221EF
:106F60000A4B0198C2F808131B68012002B0BDE863
:106F700010401847116853718847054B1A68002A5A
:106F8000E7D102B010BD00BF000100409C2C0020E2
:106F90000401004030B56E4AD2F8043399058BB035
:106FA00067D5D2F82431002B63D00023C2F82431F6
:106FB000D2F8243101934FF40171664B0198C2F865
:106FC000081393F8291009B9012151606049022280
:106FD0008DF81820D1F88024C1F880249869D968E8
:106FE00009920022CDE90710C3E90622D3E9001473
:106FF00006A8A047564AD2F81C31C3B1554B586970
:10700000196A88426AD993F8281001F0FF00002914
:1070100064D1C2F81C01D2F81C11039103999C6839
:10702000186A196A205C01311962C2F81C05484AC5
:10703000D2F84431DBB10021464BC2F84411D2F8FA
:10704000440193F829100090009809B101211160C2
:107050009A6962B1586AD96800229A610122CDE921
:1070600007108DF8182006A8D3E9001290470BB03E
:1070700030BD374AD2F804335B07BBD5D2F80831AC
:10708000002BB7D0334B996900293ED00021C2F8BC
:107090000811D2F8081104910499D868596AD2F8F5
:1070A000182542545A6A996901325A625A6A8A42C8
:1070B000A0D1DA69002A31D0DD685C6A18699A616A
:1070C00001210022D860DA615A628DF81810CDE9EA
:1070D0000754D3E9001206A890478BE71C4A002109
:1070E000C2F81C11D2F81C210292029A5A69002A95
:1070F0009DD058699A688DF81810089059610792C8
:1071000006A8D3E90012904791E7C2F80811D2F817
:10711000080105900598D2F81825C7E793F82920AB
:1071200012B90B4A01215160094A4FF40171C2F8AA
:107130000813596ADA6808910024012007928DF833
:107140001800D3E900129C6106A8904752E700BFDF
:1071500000200040A42C0020032806D8012A06D0D5
:1071600001291BD0022908D071B1072070470129DD
:1071700011D002294FF00002F6D10B4B00EB40007A
:10718000034400205A707047074B00EB4000034453
:1071900008469A70704700F10E02D2B200EB40032D
:1071A00001490020CA547047D02C002010B5038834
:1071B000102B07D0112B04D1254B1868013818600B
:1071C00030B110BD224C216811B30131216010BDD6
:1071D00001220221FFF7C0FF40B1072806D01D4B56
:1071E0001B68002BEDD0BDE8104018470722022194
:1071F0000120FFF7B1FF08B10728F0D100210846B0
:107200000A22FFF7A9FF0028DBD00728E7D1D8E73B
:1072100001220846FFF7A0FF38B1072805D00D4B23
:107220001B6803B198472168CFE70722022101209C
:10723000FFF792FF08B10728F1D1042202210020B4
:10724000FFF78AFF0028EED00728E8D1EBE700BF60
:10725000E02C0020DC2C0020F0B50288122A83B03C
:1072600003463ED015D8102A73D0112A0FD16C4C8A
:10727000828823889A420AD16068FFF7FDFA18B124
:10728000684B9B6903B198474FF6FF73238003B0A7
:10729000F0BD502AFBD1634DC188EA899142F6D1F5
:1072A000028A022AF3D15E4C828826889642EED169
:1072B000123000F06BF9002800F09C80637A002BFC
:1072C00040F09F80D5E90113277A60683246002F8D
:1072D00018BF1946FFF776FA0028D8D0AB693BBB38
:1072E000D5E74F4C828821889142D0D14089658969
:1072F00085421FD8A58985421CD3E0899D8940F22B
:10730000F313984294BF031AC31AAB4212D800F287
:10731000F310A8420ED3434B5B694FF48072228175
:10732000002BB4D00122ADF806108DF8042001A87E
:107330009847ACE73B4D267A6068D5E90113002EEB
:1073400018BF194600236372FFF73CFA0028C5D125
:107350009DE7C67B012E9AD1314C21884FF6FF72F2
:1073600091423FD1304D8288228003CDC4F80A007B
:10737000C4F80E10598A608900258842257222D8E7
:10738000A08988421FD3E189988A40F2F313994279
:1073900094BF4B1ACB1A834215D801F2F3118142E4
:1073A00011D3204D6672EB89002B7FF470AF6B69AF
:1073B000002B3FF46CAF0121ADF806208DF80410CE
:1073C00001A8984763E7174DEB8900216172002BF4
:1073D0007FF45DAF60686968FFF7F4F900283FF457
:1073E00056AF7BE70F4B9B69002B3FF450AF042057
:1073F00098474CE76068FFF73FFA00283FF447AF33
:107400006CE76B6900222272002B3FF440AF01222F
:10741000ADF806608DF8042001A8984737E700BF53
:10742000002D0020E42C0020142D00202DE9F04731
:1074300003888788103B98B004460A2B1CD8DFE8E5
:1074400003F030291B1B1B1B1B1B1B1E0600037A92
:1074500046483F2B4FEA1314394667D8FFF790FA96
:10746000032C65D042483946FFF78AFA022C63D0D4
:1074700040483946FFF784FA18B0BDE8F087037A30
:10748000002BF9D1437A39481B0739466BD5FFF7F2
:107490006DFAF1E738483946FFF772FA18B0BDE8DF
:1074A000F087364A9368DB43009351686846FFF7DC
:1074B00089FA009B0193019B83B300263546294638
:1074C00001A8FFF767FA28B118AB03EB46030136B2
:1074D00023F8285C0135142DF1D10D960DF1340CF3
:1074E000BCE80F0002AD0FC5BCE80F000FC59CE85B
:1074F000070085E807008EB10DF10A08DFF888A0C3
:1075000008EB460638F8029F1D4D284649460435CB
:10751000FFF736FAAA45F8D1B045F3D1132F12D9A7
:107520000420FEF7E5FE18B0BDE8F087FFF71EFA6D
:107530000F483946FFF71AFA0E483946FFF716FA90
:1075400018B0BDE8F0870C483946FFF70FFA0C4831
:107550003946FFF70BFAE37B012B8DD009483946FA
:10756000FFF704FA88E7FFF70BFA85E7342D0020D0
:10757000302D00202C2D0020242D00201C2D00203B
:10758000202D0020282D0020982D0020007800F0CC
:1075900001007047014B1878704700BF982D0020FC
:1075A00000B583B008496846FFF71AFA019B43B15A
:1075B000D3E9002090476846FFF71CFA019B002B97
:1075C000F6D103B05DF804FB1887020061DF704755
:1075D00030B5134DADF5017D4FF4FA740DF1020194
:1075E00003A8ADF80240FFF7F1FF88B9294601A8CA
:1075F000FFF7F6F9029B002BF0D0D3E9002103A896
:10760000904701A8FFF7F6F9029B002BF5D1E5E7BB
:10761000052801D0FEF76CFE0DF5017D30BD00BFE1
:1076200024870200024B1B780BB1FFF7D1BF7047D4
:10763000992D00204BDF704710B5114C84B001A884
:10764000FFF7F8FFA8B9214602A8FFF7C9F9039B85
:10765000002BF4D0D3E900210198904702A8FFF74E
:10766000C9F9039B002BF5D101A8FFF7E3FF002820
:10767000E9D0052801D0FEF73BFE04B010BD00BFE5
:107680003087020038B52148214C0022162100F035
:1076900041F81E480122192100F03CF81B48012244
:1076A0001A2100F037F819480022192100F044F897
:1076B000164800221A2100F03FF84FF4FA6544F012
:1076C00001044FF47A40A047013DFAD10F4801224E
:1076D0001921054600F030F801221A21284600F051
:1076E0002BF81621284600F037F8044619212846C1
:1076F00022463CB900F020F822461A21284600F024
:107700001BF8EEE701221921E4E700BF9C2D0020C1
:10771000408702003AB101234FF0A04203FA01F181
:10772000C2F81815704701F5E0714FF0A0430C2224
:1077300043F82120704700BF012332B14FF0A0422F
:1077400003FA01F1C2F8081570474FF0A04203FA9E
:1077500001F1C2F80C1570474FF0A043D3F8103573
:1077600023FA01F101F00100704700BF08B5074B93
:10777000044613B10021AFF30080054B1868836AFB
:1077800003B19847204600F03FF800BF000000001A
:107790004887020070B50D4D0D4C641BA4100026E7
:1077A000A64209D10B4D0C4C00F0A4FF641BA410A1
:1077B0000026A64205D170BD55F8043B9847013616
:1077C000EEE755F8043B98470136F2E7402B0020DE
:1077D000402B0020402B0020442B00200A449142E3
:1077E00000F1FF3300D1704710B511F8014B03F8D9
:1077F000014F9142F9D110BD02440346934200D19A
:10780000704703F8011BF9E7FEE700BF03685A0061
:107810004CBF43F0004323F000431844704700BFBF
:107820002DE9F84329B34F1E044615463E464FF056
:10783000000808EB060101EBD171491004EBC10906
:107840004846FFF7E3FF0346C80008308F42204454
:1078500009D0AB4209D8FFF7D9FF0138A8420AD2B4
:1078600001F10108E5E7AB4205D9884501D04E1E7C
:10787000DFE74FF000094846BDE8F883012807D04C
:10788000022807D0044B00280CBF18460020704780
:1078900002487047024870472D7F0200357F020082
:1078A0003D7F020030B5234B83B004468D1E3BB3B1
:1078B00001A92846AFF30080E8B101992A46FFF7F5
:1078C000AFFF0146B8B1FFF7A1FF4B68A064012BE1
:1078D0002BD0002B01F1040023DBFFF797FF0023DF
:1078E000C4E913030368002B10DBFFF78FFF20614F
:1078F000002003B030BD00230920236103B030BD58
:107900000D490E48091AC9100191D7E7C3F3036066
:10791000FFF7B4FF0028206114BF0020092003B046
:1079200030BD0123C4E91303DCE7002323610520F4
:10793000DFE700BF00000000208802008887020007
:107940000368DA0710B5044606D49B0700F1480027
:1079500009D500F047FC2368590709D51A070ED549
:10796000DB0613D510BD00F035FC23685907F5D4AC
:1079700004F1D00000F03EFC23681A07F0D404F5AF
:10798000A87000F03FFC2368DB06EBD404F5E87038
:10799000BDE8104000F07ABC0346006800B118440E
:1079A000704700BF704700BF70B504460E46316C8B
:1079B0002046FFF777FF054688B9336C636132468E
:1079C00023692146012098470828F0D0072806D1CE
:1079D0002846316CFFF7E6FF301D00F0EFFB00F0AA
:1079E0002DFE00BF2DE9F0470D1D064614460FCDB4
:1079F000ADF5727D0DF10C0CACE80F000FCDACE8CD
:107A00000F000FCDACE80F0095E80F0002ADF7684E
:107A1000D6F818808CE80F0000232B6021E02B6C37
:107A200073614FF4F07229467AA8FFF7D7FE3369E5
:107A30007AAA314650469847889BCDE9005821469E
:107A40006B648146334632460120B8470446E8B9A4
:107A50004FF4F0727AA92846FFF7C0FEB9F1080F7B
:107A60001BD1296C3046FFF71DFF09345FFA84FAF9
:107A700081460028D3D0AB6B4AF01001CDE9005805
:107A800032466B6401203346B84708B14FF009090C
:107A900048460DF5727DBDE8F087B9F1070FF5D1C5
:107AA0002046296CFFF77EFF03A800F087FB00BF8C
:107AB000F0B5CB6B0B640E1D0F4605460FCEF9B02B
:107AC00001AC0FC40FCE0FC40FCE0FC496E80F0049
:107AD0004FF0FF3684E80F00009606E02B696A46F7
:107AE000294698470828044608D110992846FFF7E8
:107AF000D9FE0028F2D0092079B0F0BD6846FFF722
:107B00001FFF062CF7D139462846FFF74DFF00BF6F
:107B100030B4DD6BC160826119461D64002230BC47
:107B2000FFF760BF70B5C66843690B64AEB90369FF
:107B30000A4604460D46014602209847072805D00C
:107B400008280FD129462046FFF72EFF3046296C22
:107B5000FFF728FF281D00F031FB0122FFF742FF4D
:107B600000F06CFD00F06AFDC26822B1CA6B0A64C5
:107B70000022FFF737BFFFF79BBF00BF012912D0DC
:107B800009D873B90F2A0CD800EB82021846536843
:107B9000009A136070470339012994BF0120022025
:107BA0007047022070470846704700BF10B584B088
:107BB000002303AC0A4600941946FFF7DFFF039841
:107BC00004B010BD012912D009D873B90F2A0CD8FE
:107BD00000EB8200009A1268426018467047033931
:107BE000012994BF012002207047022070470846F7
:107BF000704700BF10B584B0002303AC039200941B
:107C00000A461946FFF7DEFF04B010BDF0B5D36B8E
:107C10001364151D8C4606460FCDADF50F7D17ACD0
:107C20000FC40FCD0FC40FCD0FC495E80F004FF058
:107C3000FF3784E80F006546169710E0FFF7DAFF7C
:107C4000294616A8B047034616AA6946082083B9F4
:107C5000049B9847052804460CD0092809D026998A
:107C60006846FFF71FFE03466A460C2116A8002B44
:107C7000E4D0092416A8FFF763FE20460DF50F7D1A
:107C8000F0BD00BF2DE9F04FCC6C89B00D4654F823
:107C9000041B0694174600F003081E46002B79D0FB
:107CA0000B0CDAB209048DF81D30022304EB8204B8
:107CB00005918DF81C302B6DB8F1020F08BFAC6B2D
:107CC00013F001030CD0384605A900F069FB18B980
:107CD000082009B0BDE8F08F092009B0BDE8F08F99
:107CE000D4F800A0BAF1000FEDD0019300F0080322
:107CF0000293022E4AD0B4F800A0B4F802900434E3
:107D0000AA6C29F0010B0F2138469344FFF74EFF70
:107D1000834539D82AF001025A44824294BF002098
:107D200001204FEA490303F002030AF0010A43EA83
:107D30000A03012B49D0022B32D0002BCCD1B8F151
:107D4000000F02D0002840F0CD800434D4F800A009
:107D5000BAF1000FCDD105A9384600F021FB00286B
:107D6000BAD1019B002BB3D00F213846FFF71EFF7D
:107D70000E2102463846FFF73DFF38466A4A0F217A
:107D8000FFF738FF0720A8E70020CAE7D4F80490DF
:107D90000834B5E7090203230591ADF81C308AE7E2
:107DA000236823F0004BB8F1000F45D128B1029AA7
:107DB000002A5CD0BBF1000F74D0002B00DA043431
:107DC0000BF1010B04EB8B04C0E7B8F1000F19D1E4
:107DD000B0B1D4E90023991C4FEAD2723FF47CAFD2
:107DE00005F158010133049100F09080201DFFF748
:107DF000D3FD04AB01462846AFF3008000285BD1D9
:107E00000834A3E70D213846D5F82090FFF7CEFEC1
:107E10008145F5D1AB6A9C42F2D12046FFF7F6FCD2
:107E20000F2102463846FFF7E5FE38462A46002174
:107E3000FFF7E0FE072050E70D213846D5F82090E7
:107E4000FFF7B4FE814501D02368B6E7AB6A9C42D8
:107E5000FAD104220021C5E90B12A318C5F828B0F5
:107E60006B6323688B4259DB01230193A8E705F17B
:107E70005803CDF80C8004F1040AB04691461E4622
:107E80000DE00496FFF788FD04AB0146002228466A
:107E9000AFF3008009F101090AF1040AE8B9D945F4
:107EA0005046EED138460D21FFF780FE049B286234
:107EB000C5E90934062010E781460D213846FFF751
:107EC00075FEB9F1020F286225D12B46049A43F8BA
:107ED0002C2F6B62AC620620FFE646462368DDF875
:107EE0000C806AE72046FFF791FC04340246AC633D
:107EF00028461446AFF3008000283FF4EDAE384624
:107F000022460F21FFF776FE0720E6E638460D21D0
:107F1000FFF74CFE2862049B6B62DBE70BF101006C
:107F200004EB80007AE700BF000000000023FFF7A9
:107F3000A9BE00BF0123FFF7A5BE00BF0223FFF7C4
:107F4000A1BE00BF2DE9F0430646C3B015461C464E
:107F5000042900F2B980DFE801F09A53B729030041
:107F6000002C40F0B180102A00F2AE800368D806E1
:107F700000F1F38020AF384600F092F9B06B002397
:107F8000012404FA03F22A42014604D051F8042BDA
:107F900047F8232008460133042BF2D1B06338465A
:107FA00000F074F9002043B0BDE8F083032C40F0EA
:107FB0008B8094B204EB1243102B4FEA124500F26F
:107FC000838003681F0700F1D08020AF384600F09F
:107FD0003BF907EBC501B56B54B10B46E81A01EB51
:107FE000C401E4001A5843F8042B8B42FAD125440B
:107FF0003846B56300F006F9002043B0BDE8F083D1
:10800000012C4FEA124895B25AD0052C5CD108EBEE
:108010000509B9F1200F57D8B8F10F0F77D9A94644
:10802000002D40F08880B36B6DB320AF4FF0000996
:1080300007EBC807043F03EBC50553F8041B47F8DB
:10804000041FAB42F9D1B9F1000F0FD06F46414682
:10805000102938BF102107EBC101843903EBC90592
:1080600053F8040B41F8040FAB42F9D1012C00F096
:108070008480B8F10F0FB56345D9B9F1000F02D074
:10808000684600F0B7F8002043B0BDE8F083DCB9E3
:10809000876B2346012094B206F1040C00FA03F228
:1080A0002242394604D051F8042B4CF823200F46C5
:1080B0000133102BF2D115F40050E4D1B76304E082
:1080C00008EB0503102B03D9022043B0BDE8F08371
:1080D000B8F10F0FF8D83368DA0706D5304623F029
:1080E000030340F8483B00F079F820AF384600F031
:1080F00075F8B36B002D99D11D460435B56338462C
:1081000000F068F8BFE720A800F06CF8B5E7B9F117
:10811000100F40D9A9F110093368D90708D523F009
:108120000103304643F0020340F8483B00F05EF89C
:10813000B9F1000F32D033685A0720D4B8F10F0FCD
:1081400025D96F463846C8F1100500F057F8002DC4
:10815000B36B7FF77CAF20AF6AE723F01003336087
:1081600006F5E87000F09CF804E723F008030360CC
:1081700000F5A87000F068F827E720AFBDE73046AB
:1081800023F0040340F8D03B00F038F8D6E720A8ED
:1081900000F02CF8D5E74FF00009BDE7B8F10F0F5C
:1081A0003FF641AF20AF384600F020F8B36B002D0A
:1081B0007FF43CAF384600F015F864E700F1340175
:1081C00091E838009C46A6464CF8045D90E8FF0F05
:1081D000E54600BD90EC210B704700BF80EC210B01
:1081E000704700BF90EC200B704700BF80EC200B65
:1081F000704700BFD0EC200B704700BFC0EC200BD5
:10820000704700BFF0EC0201F0EC0211F0EC02212B
:10821000F0EC0231F0EC0241F0EC0251F0EC0261C2
:10822000F0EC0271F0EC0281F0EC0291F0EC02A1B2
:10823000F0EC02B1F0EC02C1F0EC02D1F0EC02E1A2
:10824000F0EC02F1704700BFE0EC0201E0EC02113B
:10825000E0EC0221E0EC0231E0EC0241E0EC025102
:10826000E0EC0261E0EC0271E0EC0281E0EC0291F2
:10827000E0EC02A1E0EC02B1E0EC02C1E0EC02D1E2
:10828000E0EC02E1E0EC02F1704700BFB0FC0181DC
:10829000B0FC0191B0FC01A1B0FC01B1704700BF7E
:1082A000A0FC0181A0FC0191A0FC01A1A0FC01B1F6
:1082B000704700BFEC4600B52DE900502DE9FF1FC7
:1082C0004FF000032DE90C0001A9FFF7F1FBDDF8E9
:1082D00040E012B0704700BFEC4600B52DE90050F9
:1082E0002DE9FF1F4FF000032DE90C0001A9FFF756
:1082F00019FCDDF840E012B0704700BFEC4600B555
:108300002DE900502DE9FF1F4FF000032DE90C006F
:1083100001A9FFF729FCDDF840E012B0704700BF6B
:10832000EC4600B52DE900502DE9FF1F4FF000038A
:108330002DE90C0001ABFFF7EBFBDDF840E012B0DC
:10834000704700BFEC4600B52DE900502DE9FF1F36
:108350004FF000032DE90C0001AAFFF757FCDDF8F0
:1083600040E012B0704700BF027A7AB9437AA3B1F5
:108370004268013B10B4437213680321141D01725B
:108380001A024460026010BC180E70470368013A7C
:1083900002721A020260180E7047B020704700BFC8
:1083A0002DE9F043054685B00E464FF000083046F3
:1083B000FFF7DAFFB028044600F0B280070620D5A8
:1083C00000F0F003802B4DD0902B36D0A02B60D046
:1083D000B02B74D0C02B00F08B8000F0F803D02BB2
:1083E0000BD100F00702013242F4002205230121E3
:1083F0002846FFF7A7FD0028D9D0092005B0BDE821
:10840000F0830DF10C09002319468700CDF8009088
:108410000D222846FFF7B2FBFFB2039BCDF8009078
:10842000043760064CBFDF1BFF18002319460D22DE
:1084300028460397FFF7C6FBB9E700F00D030D2BA5
:10844000DBD003AF002300F00F0219460097284647
:10845000FFF794FB0023009719460D222846FFF7EB
:10846000B1FBA4E73046FFF77FFF24022043B0F5BD
:10847000004FC2D004010023A2B219462846FFF7DC
:1084800061FD0028B9D114F4004F18BF4FF0010866
:108490008DE7C24302F007034FF47F621A410107E0
:1084A00002F47F624FF0000348BF42F48042194655
:1084B0002846FFF747FD00283FF479AF9DE7B12834
:1084C00033D0B22800F08B80B32839D000F0FC0301
:1084D000B42B92D000F007020132012342F40022B3
:1084E00019462846FFF72EFD00283FF460AF84E7C9
:1084F000C62842D0C7284CD000F0F803C02B5BD070
:10850000C82860D0C9287FF478AF3046FFF72CFF29
:10851000020300F00F0002F470220130024365E70D
:10852000B8F1000F18D0002068E73046FFF71CFFB5
:10853000024600283FF461AF10F0F003D0D05CE7B2
:108540003046FFF711FF010300F00F0001F4702126
:10855000421C01230A43C3E703AC43460E224146B3
:1085600000942846FFF70AFB0094284643460F2252
:108570004146FFF727FB404640E73046FFF7F4FE51
:10858000010300F00F0001F47021421C03230A4391
:10859000A6E73046FFF7E8FE024600283FF42DAF7D
:1085A00010F0F0037FF429AF04212846FFF7CAFC3E
:1085B00000283FF4FCAE20E700F00F020132032355
:1085C00042F420228CE73046FFF7CEFE00F0F002A6
:1085D00000F00F031032013343EA023206E70023B2
:1085E0000DF10C090D221946CDF800902846FFF731
:1085F000C5FA3046FFF7B8FE02064FF002070CD569
:10860000039B00F07F00B840034430460393FFF71C
:10861000ABFE030607F10707F2D4039BCDF80090E9
:1086200000F07F0403F50172BC4000231444194696
:108630000D2228460394FFF7C5FAB8E608B50620D0
:1086400000F02CF80120FFF7DFF81F2938B50446A9
:108650000D4604D9162303604FF0FF3038BD426C3D
:1086600012B152F821304BB9204600F031F82A46B9
:1086700001462046BDE8384000F018B8012B0AD06A
:10868000591C03D1162303600120E7E7002442F8B8
:108690002540284698470020E0E70000024B0146AD
:1086A0001868FFF7D2BF00BFDC2A002038B5074D9D
:1086B00000230446084611462B6000F013F8431CC3
:1086C00002D12B6803B1236038BD00BFAC2D002060
:1086D00000F000B8024B58221A604FF0FF3070478C
:1086E000AC2D0020024B58221A604FF0FF3070472B
:1086F000AC2D0020F8B500BFF8BC08BC9E46704702
:10870000F8B500BFF8BC08BC9E46704700000000EA
:108710000338FDD870470000788702008887020080
:10872000080000005087020068870200080000006F
:108730006887020070870200080000000000000047
:108740000338FDD870470000E02A00200000000038
:108750002D74020000000000AD7102000000000056
:08876000597202000000000044
:08876800056E02000000000094
:088770002D6E02000000000064
:1087780025760200000000003976020000000000A3
:10878800B8DAFF7F01000000F4EEFF7FA908B1808E
:108798007CEFFF7F0100000004F1FF7FB0A9028099
:1087A80098F1FF7FB0B0A880E8F1FF7F01000000DA
:1087B800F0F1FF7FB0B0AA8024F2FF7FAE71B280E3
:1087C800E8F2FF7FAB3F388040F3FF7F01000000F5
:1087D8004CF3FF7FB0B0AA8088F3FF7F0100000050
:1087E80024F4FF7FAB0EB28094F4FF7FB0AF088013
:1087F80034F7FF7F0100000044F7FF7FAD3F0280A0
:10880800B4F9FF7F0100000090FBFF7FB0AD04804A
:0888180024FEFF7F01000000B7
:108820000090D003E02A00200000000000000000BB
:108830000000000000000000000000000000000038
:108840000000000000000000000000000000000028
:108850000000000000000000000000000000000018
:108860000000000000000000000000000000000008
:1088700000000000000000000000000000000000F8
:1088800000000000000000002562020001620200FA
:04000003200062B5C2
:00000001FF
